{
  "_format": "hh-sol-artifact-1",
  "contractName": "MultisigFactory",
  "sourceName": "contracts/MultisigFactory.sol",
  "abi": [
    {
      "anonymous": false,
      "inputs": [
        {
          "indexed": true,
          "internalType": "contract Multisig",
          "name": "newMultisig",
          "type": "address"
        },
        {
          "indexed": false,
          "internalType": "uint256",
          "name": "length",
          "type": "uint256"
        }
      ],
      "name": "MultisigWalletCreated",
      "type": "event"
    },
    {
      "inputs": [
        {
          "internalType": "uint8",
          "name": "_quorum",
          "type": "uint8"
        },
        {
          "internalType": "address[]",
          "name": "_validSigners",
          "type": "address[]"
        }
      ],
      "name": "createMultisigWallet",
      "outputs": [
        {
          "internalType": "contract Multisig",
          "name": "newMulsig_",
          "type": "address"
        },
        {
          "internalType": "uint256",
          "name": "length_",
          "type": "uint256"
        }
      ],
      "stateMutability": "nonpayable",
      "type": "function"
    },
    {
      "inputs": [],
      "name": "getMultiSigClones",
      "outputs": [
        {
          "internalType": "contract Multisig[]",
          "name": "",
          "type": "address[]"
        }
      ],
      "stateMutability": "view",
      "type": "function"
    }
  ],
  "bytecode": "0x608060405234801561001057600080fd5b5061325d806100206000396000f3fe60806040523480156200001157600080fd5b50600436106200003a5760003560e01c8063109dd5e9146200003f578063b4d3a48c1462000061575b600080fd5b6200004962000098565b6040516200005891906200043b565b60405180910390f35b6200007f60048036038101906200007991906200066b565b62000128565b6040516200008f929190620006fd565b60405180910390f35b606060008054806020026020016040519081016040528092919081815260200182805480156200011e57602002820191906000526020600020905b8160009054906101000a900473ffffffffffffffffffffffffffffffffffffffff1673ffffffffffffffffffffffffffffffffffffffff1681526020019060010190808311620000d3575b5050505050905090565b600080600080600090505b8451811015620001a1573373ffffffffffffffffffffffffffffffffffffffff168582815181106200016a57620001696200072a565b5b602002602001015173ffffffffffffffffffffffffffffffffffffffff16036200019357600191505b808060010191505062000133565b5080620001e5576040517f08c379a0000000000000000000000000000000000000000000000000000000008152600401620001dc90620007e0565b60405180910390fd5b8484604051620001f590620002e5565b62000202929190620008d0565b604051809103906000f0801580156200021f573d6000803e3d6000fd5b5092506000839080600181540180825580915050600190039060005260206000200160009091909190916101000a81548173ffffffffffffffffffffffffffffffffffffffff021916908373ffffffffffffffffffffffffffffffffffffffff16021790555060008054905091508273ffffffffffffffffffffffffffffffffffffffff167f9492665ae4acbe62679d14ff2398f159f4a39f9fb194e0468a876904eb49f18983604051620002d5919062000904565b60405180910390a2509250929050565b612906806200092283390190565b600081519050919050565b600082825260208201905092915050565b6000819050602082019050919050565b600073ffffffffffffffffffffffffffffffffffffffff82169050919050565b6000819050919050565b60006200036a620003646200035e846200031f565b6200033f565b6200031f565b9050919050565b60006200037e8262000349565b9050919050565b6000620003928262000371565b9050919050565b620003a48162000385565b82525050565b6000620003b8838362000399565b60208301905092915050565b6000602082019050919050565b6000620003de82620002f3565b620003ea8185620002fe565b9350620003f7836200030f565b8060005b838110156200042e578151620004128882620003aa565b97506200041f83620003c4565b925050600181019050620003fb565b5085935050505092915050565b60006020820190508181036000830152620004578184620003d1565b905092915050565b6000604051905090565b600080fd5b600080fd5b600060ff82169050919050565b6200048b8162000473565b81146200049757600080fd5b50565b600081359050620004ab8162000480565b92915050565b600080fd5b6000601f19601f8301169050919050565b7f4e487b7100000000000000000000000000000000000000000000000000000000600052604160045260246000fd5b6200050182620004b6565b810181811067ffffffffffffffff82111715620005235762000522620004c7565b5b80604052505050565b6000620005386200045f565b9050620005468282620004f6565b919050565b600067ffffffffffffffff821115620005695762000568620004c7565b5b602082029050602081019050919050565b600080fd5b60006200058c826200031f565b9050919050565b6200059e816200057f565b8114620005aa57600080fd5b50565b600081359050620005be8162000593565b92915050565b6000620005db620005d5846200054b565b6200052c565b905080838252602082019050602084028301858111156200060157620006006200057a565b5b835b818110156200062e5780620006198882620005ad565b84526020840193505060208101905062000603565b5050509392505050565b600082601f83011262000650576200064f620004b1565b5b813562000662848260208601620005c4565b91505092915050565b6000806040838503121562000685576200068462000469565b5b600062000695858286016200049a565b925050602083013567ffffffffffffffff811115620006b957620006b86200046e565b5b620006c78582860162000638565b9150509250929050565b620006dc8162000385565b82525050565b6000819050919050565b620006f781620006e2565b82525050565b6000604082019050620007146000830185620006d1565b620007236020830184620006ec565b9392505050565b7f4e487b7100000000000000000000000000000000000000000000000000000000600052603260045260246000fd5b600082825260208201905092915050565b7f57616c6c65742063726561746f72206973206e6f7420612076616c696420736960008201527f676e657200000000000000000000000000000000000000000000000000000000602082015250565b6000620007c860248362000759565b9150620007d5826200076a565b604082019050919050565b60006020820190508181036000830152620007fb81620007b9565b9050919050565b6200080d8162000473565b82525050565b600081519050919050565b6000819050602082019050919050565b62000839816200057f565b82525050565b60006200084d83836200082e565b60208301905092915050565b6000602082019050919050565b6000620008738262000813565b6200087f8185620002fe565b93506200088c836200081e565b8060005b83811015620008c3578151620008a788826200083f565b9750620008b48362000859565b92505060018101905062000890565b5085935050505092915050565b6000604082019050620008e7600083018562000802565b8181036020830152620008fb818462000866565b90509392505050565b60006020820190506200091b6000830184620006ec565b9291505056fe60806040523480156200001157600080fd5b506040516200290638038062002906833981810160405281019062000037919062000559565b60018151116200007e576040517f08c379a0000000000000000000000000000000000000000000000000000000008152600401620000759062000620565b60405180910390fd5b60018260ff1611620000c7576040517f08c379a0000000000000000000000000000000000000000000000000000000008152600401620000be9062000692565b60405180910390fd5b60005b81518110156200029357600073ffffffffffffffffffffffffffffffffffffffff16828281518110620001025762000101620006b4565b5b602002602001015173ffffffffffffffffffffffffffffffffffffffff160362000163576040517f08c379a00000000000000000000000000000000000000000000000000000000081526004016200015a9062000733565b60405180910390fd5b600260008383815181106200017d576200017c620006b4565b5b602002602001015173ffffffffffffffffffffffffffffffffffffffff1673ffffffffffffffffffffffffffffffffffffffff16815260200190815260200160002060009054906101000a900460ff161562000210576040517f08c379a00000000000000000000000000000000000000000000000000000000081526004016200020790620007a5565b60405180910390fd5b6001600260008484815181106200022c576200022b620006b4565b5b602002602001015173ffffffffffffffffffffffffffffffffffffffff1673ffffffffffffffffffffffffffffffffffffffff16815260200190815260200160002060006101000a81548160ff0219169083151502179055508080600101915050620000ca565b508051600060016101000a81548160ff021916908360ff160217905550600060019054906101000a900460ff1660ff168260ff1611156200030b576040517f08c379a000000000000000000000000000000000000000000000000000000000815260040162000302906200083d565b60405180910390fd5b816000806101000a81548160ff021916908360ff16021790555050506200085f565b6000604051905090565b600080fd5b600080fd5b600060ff82169050919050565b620003598162000341565b81146200036557600080fd5b50565b60008151905062000379816200034e565b92915050565b600080fd5b6000601f19601f8301169050919050565b7f4e487b7100000000000000000000000000000000000000000000000000000000600052604160045260246000fd5b620003cf8262000384565b810181811067ffffffffffffffff82111715620003f157620003f062000395565b5b80604052505050565b6000620004066200032d565b9050620004148282620003c4565b919050565b600067ffffffffffffffff82111562000437576200043662000395565b5b602082029050602081019050919050565b600080fd5b600073ffffffffffffffffffffffffffffffffffffffff82169050919050565b60006200047a826200044d565b9050919050565b6200048c816200046d565b81146200049857600080fd5b50565b600081519050620004ac8162000481565b92915050565b6000620004c9620004c38462000419565b620003fa565b90508083825260208201905060208402830185811115620004ef57620004ee62000448565b5b835b818110156200051c57806200050788826200049b565b845260208401935050602081019050620004f1565b5050509392505050565b600082601f8301126200053e576200053d6200037f565b5b815162000550848260208601620004b2565b91505092915050565b6000806040838503121562000573576200057262000337565b5b6000620005838582860162000368565b925050602083015167ffffffffffffffff811115620005a757620005a66200033c565b5b620005b58582860162000526565b9150509250929050565b600082825260208201905092915050565b7f6665772076616c6964207369676e657273000000000000000000000000000000600082015250565b600062000608601183620005bf565b91506200061582620005d0565b602082019050919050565b600060208201905081810360008301526200063b81620005f9565b9050919050565b7f71756f72756d20697320746f6f20736d616c6c00000000000000000000000000600082015250565b60006200067a601383620005bf565b9150620006878262000642565b602082019050919050565b60006020820190508181036000830152620006ad816200066b565b9050919050565b7f4e487b7100000000000000000000000000000000000000000000000000000000600052603260045260246000fd5b7f7a65726f2061646472657373206e6f7420616c6c6f7765640000000000000000600082015250565b60006200071b601883620005bf565b91506200072882620006e3565b602082019050919050565b600060208201905081810360008301526200074e816200070c565b9050919050565b7f7369676e657220616c7265616479206578697374000000000000000000000000600082015250565b60006200078d601483620005bf565b91506200079a8262000755565b602082019050919050565b60006020820190508181036000830152620007c0816200077e565b9050919050565b7f71756f72756d2067726561746572207468616e2076616c6964207369676e657260008201527f7300000000000000000000000000000000000000000000000000000000000000602082015250565b600062000825602183620005bf565b91506200083282620007c7565b604082019050919050565b60006020820190508181036000830152620008588162000816565b9050919050565b612097806200086f6000396000f3fe608060405234801561001057600080fd5b506004361061009e5760003560e01c80635952dd90116100665780635952dd90146101355780639ace38c214610165578063ccb570e31461019e578063d40cfc51146101ba578063d5f50582146101d65761009e565b80631703a018146100a357806317eff51b146100c1578063279814b5146100df57806331470afc146100fb5780633c54068714610117575b600080fd5b6100ab610206565b6040516100b89190611584565b60405180910390f35b6100c9610217565b6040516100d69190611584565b60405180910390f35b6100f960048036038101906100f491906115d0565b61022a565b005b610115600480360381019061011091906115d0565b61062c565b005b61011f610bb3565b60405161012c9190611616565b60405180910390f35b61014f600480360381019061014a91906116bb565b610bb9565b60405161015c9190611716565b60405180910390f35b61017f600480360381019061017a9190611731565b610be8565b6040516101959a999897969594939291906117e4565b60405180910390f35b6101b860048036038101906101b39190611880565b610cc3565b005b6101d460048036038101906101cf91906115d0565b6111df565b005b6101f060048036038101906101eb91906118d3565b611548565b6040516101fd9190611716565b60405180910390f35b60008054906101000a900460ff1681565b600060019054906101000a900460ff1681565b6000600360008360ff1681526020019081526020016000209050600081600001540361028b576040517f08c379a00000000000000000000000000000000000000000000000000000000081526004016102829061195d565b60405180910390fd5b60018081111561029e5761029d61175e565b5b8160010160009054906101000a900460ff1660018111156102c2576102c161175e565b5b14610302576040517f08c379a00000000000000000000000000000000000000000000000000000000081526004016102f9906119c9565b60405180910390fd5b8060040160149054906101000a900460ff1615610354576040517f08c379a000000000000000000000000000000000000000000000000000000000815260040161034b90611a35565b60405180910390fd5b60008054906101000a900460ff1660ff168160060154106103aa576040517f08c379a00000000000000000000000000000000000000000000000000000000081526004016103a190611aa1565b60405180910390fd5b600260003373ffffffffffffffffffffffffffffffffffffffff1673ffffffffffffffffffffffffffffffffffffffff16815260200190815260200160002060009054906101000a900460ff16610436576040517f08c379a000000000000000000000000000000000000000000000000000000000815260040161042d90611b0d565b60405180910390fd5b600460003373ffffffffffffffffffffffffffffffffffffffff1673ffffffffffffffffffffffffffffffffffffffff16815260200190815260200160002060008360ff16815260200190815260200160002060009054906101000a900460ff16156104d7576040517f08c379a00000000000000000000000000000000000000000000000000000000081526004016104ce90611b79565b60405180910390fd5b6001600460003373ffffffffffffffffffffffffffffffffffffffff1673ffffffffffffffffffffffffffffffffffffffff16815260200190815260200160002060008460ff16815260200190815260200160002060006101000a81548160ff02191690831515021790555060018160060160008282546105589190611bc8565b9250508190555080600801339080600181540180825580915050600190039060005260206000200160009091909190916101000a81548173ffffffffffffffffffffffffffffffffffffffff021916908373ffffffffffffffffffffffffffffffffffffffff16021790555060008054906101000a900460ff1660ff168160060154036106285760018160040160146101000a81548160ff0219169083151502179055508060030160009054906101000a900460ff166000806101000a81548160ff021916908360ff1602179055505b5050565b6000600360008360ff1681526020019081526020016000209050600081600001540361068d576040517f08c379a000000000000000000000000000000000000000000000000000000000815260040161068490611c48565b60405180910390fd5b600060018111156106a1576106a061175e565b5b8160010160009054906101000a900460ff1660018111156106c5576106c461175e565b5b14610705576040517f08c379a00000000000000000000000000000000000000000000000000000000081526004016106fc906119c9565b60405180910390fd5b80600201548160070160009054906101000a900473ffffffffffffffffffffffffffffffffffffffff1673ffffffffffffffffffffffffffffffffffffffff166370a08231306040518263ffffffff1660e01b81526004016107679190611c68565b602060405180830381865afa158015610784573d6000803e3d6000fd5b505050506040513d601f19601f820116820180604052508101906107a89190611c98565b10156107e9576040517f08c379a00000000000000000000000000000000000000000000000000000000081526004016107e090611d11565b60405180910390fd5b8060040160149054906101000a900460ff161561083b576040517f08c379a000000000000000000000000000000000000000000000000000000000815260040161083290611d7d565b60405180910390fd5b60008054906101000a900460ff1660ff16816006015410610891576040517f08c379a000000000000000000000000000000000000000000000000000000000815260040161088890611aa1565b60405180910390fd5b600260003373ffffffffffffffffffffffffffffffffffffffff1673ffffffffffffffffffffffffffffffffffffffff16815260200190815260200160002060009054906101000a900460ff1661091d576040517f08c379a000000000000000000000000000000000000000000000000000000000815260040161091490611b0d565b60405180910390fd5b600460003373ffffffffffffffffffffffffffffffffffffffff1673ffffffffffffffffffffffffffffffffffffffff16815260200190815260200160002060008360ff16815260200190815260200160002060009054906101000a900460ff16156109be576040517f08c379a00000000000000000000000000000000000000000000000000000000081526004016109b590611b79565b60405180910390fd5b6001600460003373ffffffffffffffffffffffffffffffffffffffff1673ffffffffffffffffffffffffffffffffffffffff16815260200190815260200160002060008460ff16815260200190815260200160002060006101000a81548160ff0219169083151502179055506001816006016000828254610a3f9190611bc8565b9250508190555080600801339080600181540180825580915050600190039060005260206000200160009091909190916101000a81548173ffffffffffffffffffffffffffffffffffffffff021916908373ffffffffffffffffffffffffffffffffffffffff16021790555060008054906101000a900460ff1660ff16816006015403610baf5760018160040160146101000a81548160ff0219169083151502179055508060070160009054906101000a900473ffffffffffffffffffffffffffffffffffffffff1673ffffffffffffffffffffffffffffffffffffffff1663a9059cbb8260040160009054906101000a900473ffffffffffffffffffffffffffffffffffffffff1683600201546040518363ffffffff1660e01b8152600401610b6a929190611d9d565b6020604051808303816000875af1158015610b89573d6000803e3d6000fd5b505050506040513d601f19601f82011682018060405250810190610bad9190611df2565b505b5050565b60015481565b60046020528160005260406000206020528060005260406000206000915091509054906101000a900460ff1681565b60036020528060005260406000206000915090508060000154908060010160009054906101000a900460ff16908060020154908060030160009054906101000a900460ff16908060030160019054906101000a900473ffffffffffffffffffffffffffffffffffffffff16908060040160009054906101000a900473ffffffffffffffffffffffffffffffffffffffff16908060040160149054906101000a900460ff16908060050154908060060154908060070160009054906101000a900473ffffffffffffffffffffffffffffffffffffffff1690508a565b600073ffffffffffffffffffffffffffffffffffffffff163373ffffffffffffffffffffffffffffffffffffffff1603610d32576040517f08c379a0000000000000000000000000000000000000000000000000000000008152600401610d2990611e6b565b60405180910390fd5b600260003373ffffffffffffffffffffffffffffffffffffffff1673ffffffffffffffffffffffffffffffffffffffff16815260200190815260200160002060009054906101000a900460ff16610dbe576040517f08c379a0000000000000000000000000000000000000000000000000000000008152600401610db590611ed7565b60405180910390fd5b60008311610e01576040517f08c379a0000000000000000000000000000000000000000000000000000000008152600401610df890611f43565b60405180910390fd5b600073ffffffffffffffffffffffffffffffffffffffff168273ffffffffffffffffffffffffffffffffffffffff1603610e70576040517f08c379a0000000000000000000000000000000000000000000000000000000008152600401610e6790611e6b565b60405180910390fd5b600073ffffffffffffffffffffffffffffffffffffffff168173ffffffffffffffffffffffffffffffffffffffff1603610edf576040517f08c379a0000000000000000000000000000000000000000000000000000000008152600401610ed690611e6b565b60405180910390fd5b828173ffffffffffffffffffffffffffffffffffffffff166370a08231306040518263ffffffff1660e01b8152600401610f199190611c68565b602060405180830381865afa158015610f36573d6000803e3d6000fd5b505050506040513d601f19601f82011682018060405250810190610f5a9190611c98565b1015610f9b576040517f08c379a0000000000000000000000000000000000000000000000000000000008152600401610f9290611d11565b60405180910390fd5b600060018054610fab9190611bc8565b90506000600360008381526020019081526020016000209050818160000181905550848160020181905550838160040160006101000a81548173ffffffffffffffffffffffffffffffffffffffff021916908373ffffffffffffffffffffffffffffffffffffffff160217905550338160030160016101000a81548173ffffffffffffffffffffffffffffffffffffffff021916908373ffffffffffffffffffffffffffffffffffffffff160217905550428160050181905550828160070160006101000a81548173ffffffffffffffffffffffffffffffffffffffff021916908373ffffffffffffffffffffffffffffffffffffffff16021790555060018160060160008282546110bd9190611bc8565b9250508190555060008160010160006101000a81548160ff021916908360018111156110ec576110eb61175e565b5b021790555080600801339080600181540180825580915050600190039060005260206000200160009091909190916101000a81548173ffffffffffffffffffffffffffffffffffffffff021916908373ffffffffffffffffffffffffffffffffffffffff1602179055506001600460003373ffffffffffffffffffffffffffffffffffffffff1673ffffffffffffffffffffffffffffffffffffffff168152602001908152602001600020600084815260200190815260200160002060006101000a81548160ff02191690831515021790555060018060008282546111d19190611bc8565b925050819055505050505050565b600073ffffffffffffffffffffffffffffffffffffffff163373ffffffffffffffffffffffffffffffffffffffff160361124e576040517f08c379a000000000000000000000000000000000000000000000000000000000815260040161124590611e6b565b60405180910390fd5b600260003373ffffffffffffffffffffffffffffffffffffffff1673ffffffffffffffffffffffffffffffffffffffff16815260200190815260200160002060009054906101000a900460ff166112da576040517f08c379a00000000000000000000000000000000000000000000000000000000081526004016112d190611ed7565b60405180910390fd5b600060019054906101000a900460ff1660ff168160ff161115611332576040517f08c379a000000000000000000000000000000000000000000000000000000000815260040161132990611fd5565b60405180910390fd5b60018160ff1611611378576040517f08c379a000000000000000000000000000000000000000000000000000000000815260040161136f90612041565b60405180910390fd5b6000600180546113889190611bc8565b9050600060036000838152602001908152602001600020905081816000018190555080600801339080600181540180825580915050600190039060005260206000200160009091909190916101000a81548173ffffffffffffffffffffffffffffffffffffffff021916908373ffffffffffffffffffffffffffffffffffffffff160217905550338160030160016101000a81548173ffffffffffffffffffffffffffffffffffffffff021916908373ffffffffffffffffffffffffffffffffffffffff16021790555042816005018190555060018160010160006101000a81548160ff021916908360018111156114835761148261175e565b5b0217905550600181600601600082825461149d9190611bc8565b92505081905550828160030160006101000a81548160ff021916908360ff1602179055506001600460003373ffffffffffffffffffffffffffffffffffffffff1673ffffffffffffffffffffffffffffffffffffffff168152602001908152602001600020600084815260200190815260200160002060006101000a81548160ff021916908315150217905550600180600082825461153c9190611bc8565b92505081905550505050565b60026020528060005260406000206000915054906101000a900460ff1681565b600060ff82169050919050565b61157e81611568565b82525050565b60006020820190506115996000830184611575565b92915050565b600080fd5b6115ad81611568565b81146115b857600080fd5b50565b6000813590506115ca816115a4565b92915050565b6000602082840312156115e6576115e561159f565b5b60006115f4848285016115bb565b91505092915050565b6000819050919050565b611610816115fd565b82525050565b600060208201905061162b6000830184611607565b92915050565b600073ffffffffffffffffffffffffffffffffffffffff82169050919050565b600061165c82611631565b9050919050565b61166c81611651565b811461167757600080fd5b50565b60008135905061168981611663565b92915050565b611698816115fd565b81146116a357600080fd5b50565b6000813590506116b58161168f565b92915050565b600080604083850312156116d2576116d161159f565b5b60006116e08582860161167a565b92505060206116f1858286016116a6565b9150509250929050565b60008115159050919050565b611710816116fb565b82525050565b600060208201905061172b6000830184611707565b92915050565b6000602082840312156117475761174661159f565b5b6000611755848285016116a6565b91505092915050565b7f4e487b7100000000000000000000000000000000000000000000000000000000600052602160045260246000fd5b6002811061179e5761179d61175e565b5b50565b60008190506117af8261178d565b919050565b60006117bf826117a1565b9050919050565b6117cf816117b4565b82525050565b6117de81611651565b82525050565b6000610140820190506117fa600083018d611607565b611807602083018c6117c6565b611814604083018b611607565b611821606083018a611575565b61182e60808301896117d5565b61183b60a08301886117d5565b61184860c0830187611707565b61185560e0830186611607565b611863610100830185611607565b6118716101208301846117d5565b9b9a5050505050505050505050565b6000806000606084860312156118995761189861159f565b5b60006118a7868287016116a6565b93505060206118b88682870161167a565b92505060406118c98682870161167a565b9150509250925092565b6000602082840312156118e9576118e861159f565b5b60006118f78482850161167a565b91505092915050565b600082825260208201905092915050565b7f696e76616c696420757064617465206964000000000000000000000000000000600082015250565b6000611947601183611900565b915061195282611911565b602082019050919050565b600060208201905081810360008301526119768161193a565b9050919050565b7f496e76616c6964207472616e73616374696f6e20747970650000000000000000600082015250565b60006119b3601883611900565b91506119be8261197d565b602082019050919050565b600060208201905081810360008301526119e2816119a6565b9050919050565b7f71756f72756d2075706461746520616c726561647920636f6d706c6574656400600082015250565b6000611a1f601f83611900565b9150611a2a826119e9565b602082019050919050565b60006020820190508181036000830152611a4e81611a12565b9050919050565b7f617070726f76616c7320616c7265616479207265616368656400000000000000600082015250565b6000611a8b601983611900565b9150611a9682611a55565b602082019050919050565b60006020820190508181036000830152611aba81611a7e565b9050919050565b7f6e6f7420612076616c6964207369676e65720000000000000000000000000000600082015250565b6000611af7601283611900565b9150611b0282611ac1565b602082019050919050565b60006020820190508181036000830152611b2681611aea565b9050919050565b7f63616e2774207369676e20747769636500000000000000000000000000000000600082015250565b6000611b63601083611900565b9150611b6e82611b2d565b602082019050919050565b60006020820190508181036000830152611b9281611b56565b9050919050565b7f4e487b7100000000000000000000000000000000000000000000000000000000600052601160045260246000fd5b6000611bd3826115fd565b9150611bde836115fd565b9250828201905080821115611bf657611bf5611b99565b5b92915050565b7f696e76616c696420747820696400000000000000000000000000000000000000600082015250565b6000611c32600d83611900565b9150611c3d82611bfc565b602082019050919050565b60006020820190508181036000830152611c6181611c25565b9050919050565b6000602082019050611c7d60008301846117d5565b92915050565b600081519050611c928161168f565b92915050565b600060208284031215611cae57611cad61159f565b5b6000611cbc84828501611c83565b91505092915050565b7f696e73756666696369656e742066756e64730000000000000000000000000000600082015250565b6000611cfb601283611900565b9150611d0682611cc5565b602082019050919050565b60006020820190508181036000830152611d2a81611cee565b9050919050565b7f7472616e73616374696f6e20616c726561647920636f6d706c65746564000000600082015250565b6000611d67601d83611900565b9150611d7282611d31565b602082019050919050565b60006020820190508181036000830152611d9681611d5a565b9050919050565b6000604082019050611db260008301856117d5565b611dbf6020830184611607565b9392505050565b611dcf816116fb565b8114611dda57600080fd5b50565b600081519050611dec81611dc6565b92915050565b600060208284031215611e0857611e0761159f565b5b6000611e1684828501611ddd565b91505092915050565b7f61646472657373207a65726f20666f756e640000000000000000000000000000600082015250565b6000611e55601283611900565b9150611e6082611e1f565b602082019050919050565b60006020820190508181036000830152611e8481611e48565b9050919050565b7f696e76616c6964207369676e6572000000000000000000000000000000000000600082015250565b6000611ec1600e83611900565b9150611ecc82611e8b565b602082019050919050565b60006020820190508181036000830152611ef081611eb4565b9050919050565b7f63616e27742073656e64207a65726f20616d6f756e7400000000000000000000600082015250565b6000611f2d601683611900565b9150611f3882611ef7565b602082019050919050565b60006020820190508181036000830152611f5c81611f20565b9050919050565b7f71756f72756d2067726561746572207468616e2076616c6964207369676e657260008201527f7300000000000000000000000000000000000000000000000000000000000000602082015250565b6000611fbf602183611900565b9150611fca82611f63565b604082019050919050565b60006020820190508181036000830152611fee81611fb2565b9050919050565b7f71756f72756d20697320746f6f20736d616c6c00000000000000000000000000600082015250565b600061202b601383611900565b915061203682611ff5565b602082019050919050565b6000602082019050818103600083015261205a8161201e565b905091905056fea264697066735822122039abeebb384cb9dc83fc64de204e772ae5806f42ed390dd4962790dfd0f35bed64736f6c63430008180033a264697066735822122081bc3eb0a6e66a679414d5c7390bd468030f8b64539fdc2a59de05df3967572564736f6c63430008180033",
  "linkReferences": {},
  "deployedLinkReferences": {}
}